:03000000020100FA
:100100007D0212810C12811CF975F00AA4F8E9C471
:10011000F912811CC0E029F9128104D0E028C0E066
:10012000C001128114DDDB12810C12811CB40A277C
:10013000D001D0F0D0E0128104742B128102E912B8
:100140008104743D128102D0E025F075F00A84C468
:1001500025F012810480FEB40B41D001D0F0D0E034
:10016000128104742D128102E9128104743D1281FE
:1001700002D0E0C395F0C0E0798059B4800F742DAF
:10018000128102D0E0F475F00125F0C0E075F00AAC
:10019000D0E084C425F012810480FEB40C26D00186
:1001A000D0F0D0E0128104742A128102E912810495
:1001B000743D128102D0E0A475F00A84C425F012C7
:1001C000810480FED001D0F0D0E0128104742F129F
:1001D0008102E9128104743D128102D0E084C0F0F2
:1001E00075F00A84C425F01281047472128102D061
:0E01F000E075F00A84C425F012810480FE0040
:00000001FF
